{
  "_format": "hh-sol-artifact-1",
  "contractName": "Blackjack",
  "sourceName": "contracts/Blackjack.sol",
  "abi": [
    {
      "inputs": [],
      "stateMutability": "nonpayable",
      "type": "constructor"
    },
    {
      "anonymous": false,
      "inputs": [
        {
          "indexed": false,
          "internalType": "string",
          "name": "card",
          "type": "string"
        }
      ],
      "name": "CardDealt",
      "type": "event"
    },
    {
      "anonymous": false,
      "inputs": [],
      "name": "DeckShuffled",
      "type": "event"
    },
    {
      "inputs": [],
      "name": "dealHands",
      "outputs": [],
      "stateMutability": "nonpayable",
      "type": "function"
    },
    {
      "inputs": [],
      "name": "getCardCount",
      "outputs": [
        {
          "internalType": "int256",
          "name": "",
          "type": "int256"
        }
      ],
      "stateMutability": "view",
      "type": "function"
    },
    {
      "inputs": [],
      "name": "getDealerHand",
      "outputs": [
        {
          "internalType": "string[]",
          "name": "",
          "type": "string[]"
        }
      ],
      "stateMutability": "view",
      "type": "function"
    },
    {
      "inputs": [],
      "name": "getPlayerHand",
      "outputs": [
        {
          "internalType": "string[]",
          "name": "",
          "type": "string[]"
        }
      ],
      "stateMutability": "view",
      "type": "function"
    },
    {
      "inputs": [],
      "name": "initializeDeck",
      "outputs": [],
      "stateMutability": "nonpayable",
      "type": "function"
    },
    {
      "inputs": [],
      "name": "shuffleDeck",
      "outputs": [],
      "stateMutability": "nonpayable",
      "type": "function"
    }
  ],
  "bytecode": "0x60806040523480156200001157600080fd5b50620000226200004860201b60201c565b620000326200052760201b60201c565b620000426200070c60201b60201c565b620015d9565b60008062000057919062000c8e565b6000604051806101a001604052806040518060400160405280600181526020017f320000000000000000000000000000000000000000000000000000000000000081525081526020016040518060400160405280600181526020017f330000000000000000000000000000000000000000000000000000000000000081525081526020016040518060400160405280600181526020017f340000000000000000000000000000000000000000000000000000000000000081525081526020016040518060400160405280600181526020017f350000000000000000000000000000000000000000000000000000000000000081525081526020016040518060400160405280600181526020017f360000000000000000000000000000000000000000000000000000000000000081525081526020016040518060400160405280600181526020017f370000000000000000000000000000000000000000000000000000000000000081525081526020016040518060400160405280600181526020017f380000000000000000000000000000000000000000000000000000000000000081525081526020016040518060400160405280600181526020017f390000000000000000000000000000000000000000000000000000000000000081525081526020016040518060400160405280600281526020017f313000000000000000000000000000000000000000000000000000000000000081525081526020016040518060400160405280600181526020017f4a0000000000000000000000000000000000000000000000000000000000000081525081526020016040518060400160405280600181526020017f510000000000000000000000000000000000000000000000000000000000000081525081526020016040518060400160405280600181526020017f4b0000000000000000000000000000000000000000000000000000000000000081525081526020016040518060400160405280600181526020017f41000000000000000000000000000000000000000000000000000000000000008152508152509050600060405180608001604052806040518060400160405280600181526020017f430000000000000000000000000000000000000000000000000000000000000081525081526020016040518060400160405280600181526020017f440000000000000000000000000000000000000000000000000000000000000081525081526020016040518060400160405280600181526020017f480000000000000000000000000000000000000000000000000000000000000081525081526020016040518060400160405280600181526020017f5300000000000000000000000000000000000000000000000000000000000000815250815250905060005b6004811015620005225760005b600d811015620005135760008482600d81106200048f576200048e62000d3e565b5b6020020151848460048110620004aa57620004a962000d3e565b5b6020020151604051602001620004c292919062000e36565b604051602081830303815290604052908060018154018082558091505060019003906000526020600020016000909190919091509081620005049190620010da565b5080806001019150506200046d565b50808060010191505062000460565b505050565b60005b600080549050811015620006dd576000816000805490506200054d9190620011f0565b42836040516020016200056292919062001250565b6040516020818303038152906040528051906020012060001c620005879190620012af565b82620005949190620012e7565b90506000808281548110620005ae57620005ad62000d3e565b5b906000526020600020018054620005c59062000ec9565b80601f0160208091040260200160405190810160405280929190818152602001828054620005f39062000ec9565b8015620006445780601f10620006185761010080835404028352916020019162000644565b820191906000526020600020905b8154815290600101906020018083116200062657829003601f168201915b505050505090506000838154811062000662576200066162000d3e565b5b906000526020600020016000838154811062000683576200068262000d3e565b5b9060005260206000200190816200069b91906200134f565b508060008481548110620006b457620006b362000d3e565b5b906000526020600020019081620006cc9190620010da565b50505080806001019150506200052a565b507f089eda969b0849efbaadd646def02ed3cc1b010ebc5abafcd567bc55fc43ebc060405160405180910390a1565b60005b6002811215620007b35760016200072b620007b660201b60201c565b9080600181540180825580915050600190039060005260206000200160009091909190915090816200075e9190620010da565b50600262000771620007b660201b60201c565b908060018154018082558091505060019003906000526020600020016000909190919091509081620007a49190620010da565b5080806001019150506200070f565b50565b6060600080805490501162000802576040517f08c379a0000000000000000000000000000000000000000000000000000000008152600401620007f990620014b1565b60405180910390fd5b60046034620008129190620014d3565b600080549050116200082f576200082e6200052760201b60201c565b5b6000806001600080549050620008469190620011f0565b815481106200085a576200085962000d3e565b5b906000526020600020018054620008719062000ec9565b80601f01602080910402602001604051908101604052809291908181526020018280546200089f9062000ec9565b8015620008f05780601f10620008c457610100808354040283529160200191620008f0565b820191906000526020600020905b815481529060010190602001808311620008d257829003601f168201915b5050505050905060008054806200090c576200090b6200150b565b5b6001900381819060005260206000200160006200092a919062000cb1565b90556200093d816200094460201b60201c565b8091505090565b60008190507f32000000000000000000000000000000000000000000000000000000000000008160008151811062000981576200098062000d3e565b5b602001015160f81c60f81b7effffffffffffffffffffffffffffffffffffffffffffffffffffffffffffff19161015801562000a2057507f360000000000000000000000000000000000000000000000000000000000000081600081518110620009f057620009ef62000d3e565b5b602001015160f81c60f81b7effffffffffffffffffffffffffffffffffffffffffffffffffffffffffffff191611155b1562000a485760016003600082825462000a3b919062001544565b9250508190555062000c8a565b7f31000000000000000000000000000000000000000000000000000000000000008160008151811062000a805762000a7f62000d3e565b5b602001015160f81c60f81b7effffffffffffffffffffffffffffffffffffffffffffffffffffffffffffff1916148062000c6657507f4a000000000000000000000000000000000000000000000000000000000000008160008151811062000aed5762000aec62000d3e565b5b602001015160f81c60f81b7effffffffffffffffffffffffffffffffffffffffffffffffffffffffffffff1916148062000b8957507f51000000000000000000000000000000000000000000000000000000000000008160008151811062000b5a5762000b5962000d3e565b5b602001015160f81c60f81b7effffffffffffffffffffffffffffffffffffffffffffffffffffffffffffff1916145b8062000bf757507f4b000000000000000000000000000000000000000000000000000000000000008160008151811062000bc85762000bc762000d3e565b5b602001015160f81c60f81b7effffffffffffffffffffffffffffffffffffffffffffffffffffffffffffff1916145b8062000c6557507f41000000000000000000000000000000000000000000000000000000000000008160008151811062000c365762000c3562000d3e565b5b602001015160f81c60f81b7effffffffffffffffffffffffffffffffffffffffffffffffffffffffffffff1916145b5b1562000c895760016003600082825462000c8191906200158f565b925050819055505b5b5050565b508054600082559060005260206000209081019062000cae919062000cf7565b50565b50805462000cbf9062000ec9565b6000825580601f1062000cd3575062000cf4565b601f01602090049060005260206000209081019062000cf3919062000d1f565b5b50565b5b8082111562000d1b576000818162000d11919062000cb1565b5060010162000cf8565b5090565b5b8082111562000d3a57600081600090555060010162000d20565b5090565b7f4e487b7100000000000000000000000000000000000000000000000000000000600052603260045260246000fd5b600081519050919050565b600081905092915050565b60005b8381101562000da357808201518184015260208101905062000d86565b60008484015250505050565b600062000dbc8262000d6d565b62000dc8818562000d78565b935062000dda81856020860162000d83565b80840191505092915050565b7f2d00000000000000000000000000000000000000000000000000000000000000600082015250565b600062000e1e60018362000d78565b915062000e2b8262000de6565b600182019050919050565b600062000e44828562000daf565b915062000e518262000e0f565b915062000e5f828462000daf565b91508190509392505050565b7f4e487b7100000000000000000000000000000000000000000000000000000000600052604160045260246000fd5b7f4e487b7100000000000000000000000000000000000000000000000000000000600052602260045260246000fd5b6000600282049050600182168062000ee257607f821691505b60208210810362000ef85762000ef762000e9a565b5b50919050565b60008190508160005260206000209050919050565b60006020601f8301049050919050565b600082821b905092915050565b60006008830262000f627fffffffffffffffffffffffffffffffffffffffffffffffffffffffffffffffff8262000f23565b62000f6e868362000f23565b95508019841693508086168417925050509392505050565b6000819050919050565b6000819050919050565b600062000fbb62000fb562000faf8462000f86565b62000f90565b62000f86565b9050919050565b6000819050919050565b62000fd78362000f9a565b62000fef62000fe68262000fc2565b84845462000f30565b825550505050565b600090565b6200100662000ff7565b6200101381848462000fcc565b505050565b5b818110156200103b576200102f60008262000ffc565b60018101905062001019565b5050565b601f8211156200108a57620010548162000efe565b6200105f8462000f13565b810160208510156200106f578190505b620010876200107e8562000f13565b83018262001018565b50505b505050565b600082821c905092915050565b6000620010af600019846008026200108f565b1980831691505092915050565b6000620010ca83836200109c565b9150826002028217905092915050565b620010e58262000d6d565b67ffffffffffffffff81111562001101576200110062000e6b565b5b6200110d825462000ec9565b6200111a8282856200103f565b600060209050601f8311600181146200115257600084156200113d578287015190505b620011498582620010bc565b865550620011b9565b601f198416620011628662000efe565b60005b828110156200118c5784890151825560018201915060208501945060208101905062001165565b86831015620011ac5784890151620011a8601f8916826200109c565b8355505b6001600288020188555050505b505050505050565b7f4e487b7100000000000000000000000000000000000000000000000000000000600052601160045260246000fd5b6000620011fd8262000f86565b91506200120a8362000f86565b9250828203905081811115620012255762001224620011c1565b5b92915050565b6000819050919050565b6200124a620012448262000f86565b6200122b565b82525050565b60006200125e828562001235565b60208201915062001270828462001235565b6020820191508190509392505050565b7f4e487b7100000000000000000000000000000000000000000000000000000000600052601260045260246000fd5b6000620012bc8262000f86565b9150620012c98362000f86565b925082620012dc57620012db62001280565b5b828206905092915050565b6000620012f48262000f86565b9150620013018362000f86565b92508282019050808211156200131c576200131b620011c1565b5b92915050565b600081549050620013338162000ec9565b9050919050565b60008190508160005260206000209050919050565b8181036200135f5750506200144e565b6200136a8262001322565b67ffffffffffffffff81111562001386576200138562000e6b565b5b62001392825462000ec9565b6200139f8282856200103f565b6000601f831160018114620013d35760008415620013be578287015490505b620013ca8582620010bc565b86555062001447565b601f198416620013e3876200133a565b9650620013f08662000efe565b60005b828110156200141a57848901548255600182019150600185019450602081019050620013f3565b868310156200143a578489015462001436601f8916826200109c565b8355505b6001600288020188555050505b5050505050505b565b600082825260208201905092915050565b7f4465636b20697320656d70747900000000000000000000000000000000000000600082015250565b600062001499600d8362001450565b9150620014a68262001461565b602082019050919050565b60006020820190508181036000830152620014cc816200148a565b9050919050565b6000620014e08262000f86565b9150620014ed8362000f86565b9250826200150057620014ff62001280565b5b828204905092915050565b7f4e487b7100000000000000000000000000000000000000000000000000000000600052603160045260246000fd5b6000819050919050565b600062001551826200153a565b91506200155e836200153a565b925082820190508281121560008312168382126000841215161715620015895762001588620011c1565b5b92915050565b60006200159c826200153a565b9150620015a9836200153a565b9250828203905081811260008412168282136000851215161715620015d357620015d2620011c1565b5b92915050565b61188880620015e96000396000f3fe608060405234801561001057600080fd5b50600436106100625760003560e01c80631ab9964c146100675780637d62013014610085578063b0a3beaf146100a3578063ec1b1a4f146100ad578063f48892c3146100b7578063fffae4fa146100c1575b600080fd5b61006f6100df565b60405161007c9190611044565b60405180910390f35b61008d6101b8565b60405161009a919061107f565b60405180910390f35b6100ab6101c2565b005b6100b5610385565b005b6100bf610854565b005b6100c96108e8565b6040516100d69190611044565b60405180910390f35b60606001805480602002602001604051908101604052809291908181526020016000905b828210156101af578382906000526020600020018054610122906110c9565b80601f016020809104026020016040519081016040528092919081815260200182805461014e906110c9565b801561019b5780601f106101705761010080835404028352916020019161019b565b820191906000526020600020905b81548152906001019060200180831161017e57829003601f168201915b505050505081526020019060010190610103565b50505050905090565b6000600354905090565b60005b600080549050811015610356576000816000805490506101e59190611133565b42836040516020016101f8929190611188565b6040516020818303038152906040528051906020012060001c61021b91906111e3565b826102269190611214565b9050600080828154811061023d5761023c611248565b5b906000526020600020018054610252906110c9565b80601f016020809104026020016040519081016040528092919081815260200182805461027e906110c9565b80156102cb5780601f106102a0576101008083540402835291602001916102cb565b820191906000526020600020905b8154815290600101906020018083116102ae57829003601f168201915b50505050509050600083815481106102e6576102e5611248565b5b906000526020600020016000838154811061030457610303611248565b5b90600052602060002001908161031a919061147d565b5080600084815481106103305761032f611248565b5b9060005260206000200190816103469190611565565b50505080806001019150506101c5565b507f089eda969b0849efbaadd646def02ed3cc1b010ebc5abafcd567bc55fc43ebc060405160405180910390a1565b6000806103929190610e50565b6000604051806101a001604052806040518060400160405280600181526020017f320000000000000000000000000000000000000000000000000000000000000081525081526020016040518060400160405280600181526020017f330000000000000000000000000000000000000000000000000000000000000081525081526020016040518060400160405280600181526020017f340000000000000000000000000000000000000000000000000000000000000081525081526020016040518060400160405280600181526020017f350000000000000000000000000000000000000000000000000000000000000081525081526020016040518060400160405280600181526020017f360000000000000000000000000000000000000000000000000000000000000081525081526020016040518060400160405280600181526020017f370000000000000000000000000000000000000000000000000000000000000081525081526020016040518060400160405280600181526020017f380000000000000000000000000000000000000000000000000000000000000081525081526020016040518060400160405280600181526020017f390000000000000000000000000000000000000000000000000000000000000081525081526020016040518060400160405280600281526020017f313000000000000000000000000000000000000000000000000000000000000081525081526020016040518060400160405280600181526020017f4a0000000000000000000000000000000000000000000000000000000000000081525081526020016040518060400160405280600181526020017f510000000000000000000000000000000000000000000000000000000000000081525081526020016040518060400160405280600181526020017f4b0000000000000000000000000000000000000000000000000000000000000081525081526020016040518060400160405280600181526020017f41000000000000000000000000000000000000000000000000000000000000008152508152509050600060405180608001604052806040518060400160405280600181526020017f430000000000000000000000000000000000000000000000000000000000000081525081526020016040518060400160405280600181526020017f440000000000000000000000000000000000000000000000000000000000000081525081526020016040518060400160405280600181526020017f480000000000000000000000000000000000000000000000000000000000000081525081526020016040518060400160405280600181526020017f5300000000000000000000000000000000000000000000000000000000000000815250815250905060005b600481101561084f5760005b600d8110156108415760008482600d81106107c5576107c4611248565b5b60200201518484600481106107dd576107dc611248565b5b60200201516040516020016107f39291906116bf565b6040516020818303038152906040529080600181540180825580915050600190039060005260206000200160009091909190915090816108339190611565565b5080806001019150506107a7565b50808060010191505061079b565b505050565b60005b60028112156108e557600161086a6109c1565b90806001815401808255809150506001900390600052602060002001600090919091909150908161089b9190611565565b5060026108a66109c1565b9080600181540180825580915050600190039060005260206000200160009091909190915090816108d79190611565565b508080600101915050610857565b50565b60606002805480602002602001604051908101604052809291908181526020016000905b828210156109b857838290600052602060002001805461092b906110c9565b80601f0160208091040260200160405190810160405280929190818152602001828054610957906110c9565b80156109a45780601f10610979576101008083540402835291602001916109a4565b820191906000526020600020905b81548152906001019060200180831161098757829003601f168201915b50505050508152602001906001019061090c565b50505050905090565b60606000808054905011610a0a576040517f08c379a0000000000000000000000000000000000000000000000000000000008152600401610a019061174b565b60405180910390fd5b60046034610a18919061176b565b60008054905011610a2c57610a2b6101c2565b5b6000806001600080549050610a419190611133565b81548110610a5257610a51611248565b5b906000526020600020018054610a67906110c9565b80601f0160208091040260200160405190810160405280929190818152602001828054610a93906110c9565b8015610ae05780601f10610ab557610100808354040283529160200191610ae0565b820191906000526020600020905b815481529060010190602001808311610ac357829003601f168201915b505050505090506000805480610af957610af861179c565b5b600190038181906000526020600020016000610b159190610e71565b9055610b2081610b27565b8091505090565b60008190507f320000000000000000000000000000000000000000000000000000000000000081600081518110610b6157610b60611248565b5b602001015160f81c60f81b7effffffffffffffffffffffffffffffffffffffffffffffffffffffffffffff191610158015610bfc57507f360000000000000000000000000000000000000000000000000000000000000081600081518110610bcc57610bcb611248565b5b602001015160f81c60f81b7effffffffffffffffffffffffffffffffffffffffffffffffffffffffffffff191611155b15610c2057600160036000828254610c1491906117cb565b92505081905550610e4c565b7f310000000000000000000000000000000000000000000000000000000000000081600081518110610c5557610c54611248565b5b602001015160f81c60f81b7effffffffffffffffffffffffffffffffffffffffffffffffffffffffffffff19161480610e2b57507f4a0000000000000000000000000000000000000000000000000000000000000081600081518110610cbe57610cbd611248565b5b602001015160f81c60f81b7effffffffffffffffffffffffffffffffffffffffffffffffffffffffffffff19161480610d5657507f510000000000000000000000000000000000000000000000000000000000000081600081518110610d2757610d26611248565b5b602001015160f81c60f81b7effffffffffffffffffffffffffffffffffffffffffffffffffffffffffffff1916145b80610dc057507f4b0000000000000000000000000000000000000000000000000000000000000081600081518110610d9157610d90611248565b5b602001015160f81c60f81b7effffffffffffffffffffffffffffffffffffffffffffffffffffffffffffff1916145b80610e2a57507f410000000000000000000000000000000000000000000000000000000000000081600081518110610dfb57610dfa611248565b5b602001015160f81c60f81b7effffffffffffffffffffffffffffffffffffffffffffffffffffffffffffff1916145b5b15610e4b57600160036000828254610e43919061180f565b925050819055505b5b5050565b5080546000825590600052602060002090810190610e6e9190610eb1565b50565b508054610e7d906110c9565b6000825580601f10610e8f5750610eae565b601f016020900490600052602060002090810190610ead9190610ed5565b5b50565b5b80821115610ed15760008181610ec89190610e71565b50600101610eb2565b5090565b5b80821115610eee576000816000905550600101610ed6565b5090565b600081519050919050565b600082825260208201905092915050565b6000819050602082019050919050565b600081519050919050565b600082825260208201905092915050565b60005b83811015610f58578082015181840152602081019050610f3d565b60008484015250505050565b6000601f19601f8301169050919050565b6000610f8082610f1e565b610f8a8185610f29565b9350610f9a818560208601610f3a565b610fa381610f64565b840191505092915050565b6000610fba8383610f75565b905092915050565b6000602082019050919050565b6000610fda82610ef2565b610fe48185610efd565b935083602082028501610ff685610f0e565b8060005b8581101561103257848403895281516110138582610fae565b945061101e83610fc2565b925060208a01995050600181019050610ffa565b50829750879550505050505092915050565b6000602082019050818103600083015261105e8184610fcf565b905092915050565b6000819050919050565b61107981611066565b82525050565b60006020820190506110946000830184611070565b92915050565b7f4e487b7100000000000000000000000000000000000000000000000000000000600052602260045260246000fd5b600060028204905060018216806110e157607f821691505b6020821081036110f4576110f361109a565b5b50919050565b6000819050919050565b7f4e487b7100000000000000000000000000000000000000000000000000000000600052601160045260246000fd5b600061113e826110fa565b9150611149836110fa565b925082820390508181111561116157611160611104565b5b92915050565b6000819050919050565b61118261117d826110fa565b611167565b82525050565b60006111948285611171565b6020820191506111a48284611171565b6020820191508190509392505050565b7f4e487b7100000000000000000000000000000000000000000000000000000000600052601260045260246000fd5b60006111ee826110fa565b91506111f9836110fa565b925082611209576112086111b4565b5b828206905092915050565b600061121f826110fa565b915061122a836110fa565b925082820190508082111561124257611241611104565b5b92915050565b7f4e487b7100000000000000000000000000000000000000000000000000000000600052603260045260246000fd5b600081549050611286816110c9565b9050919050565b7f4e487b7100000000000000000000000000000000000000000000000000000000600052604160045260246000fd5b60008190508160005260206000209050919050565b60008190508160005260206000209050919050565b60006020601f8301049050919050565b600082821b905092915050565b6000600883026113337fffffffffffffffffffffffffffffffffffffffffffffffffffffffffffffffff826112f6565b61133d86836112f6565b95508019841693508086168417925050509392505050565b6000819050919050565b600061137a611375611370846110fa565b611355565b6110fa565b9050919050565b6000819050919050565b6113948361135f565b6113a86113a082611381565b848454611303565b825550505050565b600090565b6113bd6113b0565b6113c881848461138b565b505050565b5b818110156113ec576113e16000826113b5565b6001810190506113ce565b5050565b601f82111561143157611402816112bc565b61140b846112e6565b8101602085101561141a578190505b61142e611426856112e6565b8301826113cd565b50505b505050565b600082821c905092915050565b600061145460001984600802611436565b1980831691505092915050565b600061146d8383611443565b9150826002028217905092915050565b81810361148b575050611563565b61149482611277565b67ffffffffffffffff8111156114ad576114ac61128d565b5b6114b782546110c9565b6114c28282856113f0565b6000601f8311600181146114f157600084156114df578287015490505b6114e98582611461565b86555061155c565b601f1984166114ff876112d1565b965061150a866112bc565b60005b828110156115325784890154825560018201915060018501945060208101905061150d565b8683101561154f578489015461154b601f891682611443565b8355505b6001600288020188555050505b5050505050505b565b61156e82610f1e565b67ffffffffffffffff8111156115875761158661128d565b5b61159182546110c9565b61159c8282856113f0565b600060209050601f8311600181146115cf57600084156115bd578287015190505b6115c78582611461565b86555061162f565b601f1984166115dd866112bc565b60005b82811015611605578489015182556001820191506020850194506020810190506115e0565b86831015611622578489015161161e601f891682611443565b8355505b6001600288020188555050505b505050505050565b600081905092915050565b600061164d82610f1e565b6116578185611637565b9350611667818560208601610f3a565b80840191505092915050565b7f2d00000000000000000000000000000000000000000000000000000000000000600082015250565b60006116a9600183611637565b91506116b482611673565b600182019050919050565b60006116cb8285611642565b91506116d68261169c565b91506116e28284611642565b91508190509392505050565b600082825260208201905092915050565b7f4465636b20697320656d70747900000000000000000000000000000000000000600082015250565b6000611735600d836116ee565b9150611740826116ff565b602082019050919050565b6000602082019050818103600083015261176481611728565b9050919050565b6000611776826110fa565b9150611781836110fa565b925082611791576117906111b4565b5b828204905092915050565b7f4e487b7100000000000000000000000000000000000000000000000000000000600052603160045260246000fd5b60006117d682611066565b91506117e183611066565b92508282019050828112156000831216838212600084121516171561180957611808611104565b5b92915050565b600061181a82611066565b915061182583611066565b925082820390508181126000841216828213600085121516171561184c5761184b611104565b5b9291505056fea26469706673582212207820b346b9d381fa36632ed01d77edccfea5285fab460aed45da41104c4dc19f64736f6c63430008180033",
  "linkReferences": {},
  "deployedLinkReferences": {}
}